:1040000000300020014400006944000069440000C1
:104010006944000069440000694400000000000099
:1040200000000000000000000000000069440000E3
:10403000694400000000000069440000B55600001B
:1040400069440000694400006944000069440000BC
:1040500069440000694400006944000069440000AC
:10406000694400006944000069440000694400009C
:10407000694400006944000069440000694400008C
:10408000694400006944000069440000694400007C
:10409000694400006944000069440000694400006C
:1040A000694400006944000069440000694400005C
:1040B0006944000069440000694400004155000063
:1040C00069440000C15500006944000069440000D3
:1040D000694400006944000069440000CD540000B8
:1040E000055500006944000069440000694400006F
:1040F000694400006944000069440000694400000C
:1041000069440000694400006944000069440000FB
:1041100069440000694400006944000069440000EB
:1041200069440000694400006944000069440000DB
:1041300069440000694400006944000069440000CB
:1041400069440000694400006944000069440000BB
:1041500069440000694400006944000069440000AB
:10416000694400006944000069440000694400009B
:10417000694400006944000069440000694400008B
:10418000694400006944000069440000694400007B
:10419000694400006944000069440000694400006B
:1041A000255B000069440000694400006944000088
:1041B000694400006944000069440000694400004B
:1041C000694400006944000069440000694400003B
:1041D000694400006944000069440000694400002B
:1041E000455600006944000069440000694400002D
:1041F000694400006944000069440000694400000B
:1042000069440000694400006944000069440000FA
:1042100069440000694400006944000069440000EA
:1042200069440000694400006944000069440000DA
:1042300069440000694400006944000069440000CA
:1042400069440000694400006944000069440000BA
:1042500069440000694400006944000069440000AA
:10426000694400006944000069440000694400009A
:10427000694400006944000069440000694400008A
:10428000694400006944000069440000694400007A
:10429000694400006944000069440000694400006A
:1042A000694400006944000069440000694400005A
:1042B000694400006944000069440000694400004A
:1042C000694400006944000069440000694400003A
:1042D000694400006944000069440000694400002A
:1042E000694400006944000069440000694400001A
:1042F000694400006944000069440000694400000A
:1043000069440000694400006944000069440000F9
:1043100069440000694400006944000069440000E9
:1043200069440000694400006944000069440000D9
:1043300069440000694400006944000069440000C9
:1043400069440000694400006944000069440000B9
:1043500069440000694400006944000069440000A9
:104360006944000069440000694400006944000099
:104370006944000069440000694400006944000089
:104380006944000069440000694400006944000079
:104390006944000069440000694400006944000069
:1043A0006944000069440000694400006944000059
:1043B0006944000069440000694400006944000049
:1043C0006944000069440000694400006944000039
:1043D0006944000069440000694400006944000029
:1043E0006944000069440000694400006944000019
:1043F000694400006944000069440000FFFFFFFFBA
:1044000072B64FF000014FF000024FF000034FF082
:1044100000044FF000054FF000064FF00007B846CB
:10442000B946BA46BB46BC460A490B4A521A013A3B
:1044300005DD0020042308601944043AFBDA07482C
:104440008546074880470748804762B601F03CFC34
:10445000FEE7000000C0FF1F0030002000300020F9
:10446000E9600000C1610000FFF7FEBF81F000417C
:1044700002E000BF83F0004330B54FEA41044FEA49
:10448000430594EA050F08BF90EA020F1FBF54EAE4
:10449000000C55EA020C7FEA645C7FEA655C00F080
:1044A000E2804FEA5454D4EB5555B8BF6D420CDD51
:1044B0002C4480EA020281EA030382EA000083EAD4
:1044C000010180EA020281EA0303362D88BF30BD74
:1044D00011F0004F4FEA01314FF4801C4CEA1131CA
:1044E00002D0404261EB410113F0004F4FEA033329
:1044F0004CEA133302D0524263EB430394EA050FB4
:1045000000F0A780A4F10104D5F1200E0DDB02FA22
:104510000EFC22FA05F2801841F1000103FA0EF2B6
:10452000801843FA05F359410EE0A5F120050EF17C
:10453000200E012A03FA0EFC28BF4CF0020C43FAAD
:1045400005F3C01851EBE37101F0004507D54FF0BA
:10455000000EDCF1000C7EEB00006EEB0101B1F50A
:10456000801F1BD3B1F5001F0CD349085FEA300050
:104570004FEA3C0C04F101044FEA445212F5800F5B
:1045800080F09A80BCF1004F08BF5FEA500C50F1F8
:10459000000041EB045141EA050130BD5FEA4C0CDB
:1045A000404141EB0101013C28BFB1F5801FE9D238
:1045B00091F0000F04BF01460020B1FA81F308BF5B
:1045C0002033A3F10B03B3F120020CDA0C3208DD27
:1045D00002F1140CC2F10C0201FA0CF021FA02F102
:1045E0000CE002F11402D8BFC2F1200C01FA02F172
:1045F00020FA0CFCDCBF41EA0C019040E41AA2BF97
:1046000001EB0451294330BD6FEA04041F3C1CDA5E
:104610000C340EDC04F11404C4F1200220FA04F07E
:1046200001FA02F340EA030021FA04F345EA030128
:1046300030BDC4F10C04C4F1200220FA02F001FAEA
:1046400004F340EA0300294630BD21FA04F029466C
:1046500030BD94F0000F83F4801306BF81F4801105
:104660000134013D4EE77FEA645C18BF7FEA655C78
:1046700029D094EA050F08BF90EA020F05D054EA4A
:10468000000C04BF1946104630BD91EA030F1EBF4F
:104690000021002030BD5FEA545C05D14000494153
:1046A00028BF41F0004130BD14F580043CBF01F546
:1046B000801130BD01F0004545F0FE4141F470012C
:1046C0004FF0000030BD7FEA645C1ABF1946104607
:1046D0007FEA655C1CBF0B46024650EA013406BF08
:1046E00052EA033591EA030F41F4002130BD00BFC7
:1046F00090F0000F04BF0021704730B54FF4806484
:1047000004F132044FF000054FF0000150E700BF04
:1047100090F0000F04BF0021704730B54FF4806463
:1047200004F1320410F0004548BF40424FF0000150
:104730003EE700BF42004FEAE2014FEA31014FEA93
:1047400002701FBF12F07F4393F07F4F81F06051E2
:10475000704732F07F4208BF704793F07F4F04BF2D
:1047600041F40021704730B54FF4607401F000450A
:1047700021F000411CE700BF50EA010208BF70476A
:1047800030B54FF000050AE050EA010208BF70475B
:1047900030B511F0004502D5404261EB41014FF4C4
:1047A000806404F132045FEA915C3FF4D8AE4FF0CC
:1047B00003025FEADC0C18BF03325FEADC0C18BFAF
:1047C000033202EBDC02C2F1200300FA03FC20FA00
:1047D00002F001FA03FE40EA0E0021FA02F114444D
:1047E000BDE600BF70B54FF0FF0C4CF4E06C1CEA66
:1047F00011541DBF1CEA135594EA0C0F95EA0C0FD7
:1048000000F0DEF82C4481EA030621EA4C5123EA49
:104810004C5350EA013518BF52EA033541F4801178
:1048200043F4801338D0A0FB02CE4FF00005E1FB2B
:1048300002E506F00042E0FB03E54FF00006E1FB75
:1048400003569CF0000F18BF4EF0010EA4F1FF04B8
:10485000B6F5007F64F5407404D25FEA4E0E6D41F8
:1048600046EB060642EAC62141EA55514FEAC52009
:1048700040EA5E504FEACE2EB4F1FD0C88BFBCF585
:10488000E06F1ED8BEF1004F08BF5FEA500E50F136
:10489000000041EB045170BD06F0004646EA0101FC
:1048A00040EA020081EA0301B4EB5C04C2BFD4EB2E
:1048B0000C0541EA045170BD41F480114FF0000E27
:1048C000013C00F3AB8014F1360FDEBF002001F095
:1048D000004170BDC4F10004203C35DA0C341BDC0F
:1048E00004F11404C4F1200500FA05F320FA04F0E1
:1048F00001FA05F240EA020001F0004221F0004115
:1049000010EBD37021FA04F642EB06015EEA430E87
:1049100008BF20EAD37070BDC4F10C04C4F12005B7
:1049200000FA04F320FA05F001FA04F240EA02006A
:1049300001F0004110EBD37041F100015EEA430E3B
:1049400008BF20EAD37070BDC4F1200500FA05F25B
:104950004EEA020E20FA04F301FA05F243EA0203DA
:1049600021FA04F001F0004121FA04F220EA0200E9
:1049700000EBD3705EEA430E08BF20EAD37070BD2F
:1049800094F0000F0FD101F00046400041EB01010F
:1049900011F4801F08BF013CF7D041EA060195F0F1
:1049A000000F18BF704703F00046520043EB0303AB
:1049B00013F4801F08BF013DF7D043EA0603704798
:1049C00094EA0C0F0CEA135518BF95EA0C0F0CD0A3
:1049D00050EA410618BF52EA4306D1D181EA0301E9
:1049E00001F000414FF0000070BD50EA410606BFE3
:1049F0001046194652EA430619D094EA0C0F02D128
:104A000050EA013613D195EA0C0F05D152EA03366C
:104A10001CBF104619460AD181EA030101F000418A
:104A200041F0FE4141F470014FF0000070BD41F0D3
:104A3000FE4141F4780170BD70B54FF0FF0C4CF4AD
:104A4000E06C1CEA11541DBF1CEA135594EA0C0FCC
:104A500095EA0C0F00F0A7F8A4EB050481EA030E19
:104A600052EA03354FEA013100F088804FEA033300
:104A70004FF0805545EA131343EA12634FEA0222CE
:104A800045EA111545EA10654FEA00260EF000418F
:104A90009D4208BF964244F1FD0404F5407402D2E1
:104AA0005B084FEA3202B61A65EB03055B084FEA72
:104AB00032024FF480104FF4002CB6EB020E75EB6F
:104AC000030E22BFB61A754640EA0C005B084FEA97
:104AD0003202B6EB020E75EB030E22BFB61A754614
:104AE00040EA5C005B084FEA3202B6EB020E75EB5F
:104AF000030E22BFB61A754640EA9C005B084FEAD7
:104B00003202B6EB020E75EB030E22BFB61A7546E3
:104B100040EADC0055EA060E18D04FEA051545EAD2
:104B200016754FEA06164FEAC30343EA52734FEA7B
:104B3000C2025FEA1C1CC0D111F4801F0BD141EAF4
:104B400000014FF000004FF0004CB6E711F4801F59
:104B500004BF01430020B4F1FD0C88BFBCF5E06F39
:104B60003FF6AFAEB5EB030C04BFB6EB020C5FEA49
:104B7000500C50F1000041EB045170BD0EF0004E9E
:104B80004EEA113114EB5C04C2BFD4EB0C0541EAD0
:104B9000045170BD41F480114FF0000E013C90E6CD
:104BA00045EA060E8DE60CEA135594EA0C0F08BF91
:104BB00095EA0C0F3FF43BAF94EA0C0F0AD150EA90
:104BC00001347FF434AF95EA0C0F7FF425AF104623
:104BD00019462CE795EA0C0F06D152EA03353FF44B
:104BE000FDAE1046194622E750EA410618BF52EAC8
:104BF00043067FF4C5AE50EA41047FF40DAF52EA9C
:104C000043057FF4EBAE12E74FF0FF3C06E000BF38
:104C10004FF0010C02E000BF4FF0010C4DF804CD45
:104C20004FEA410C7FEA6C5C4FEA430C18BF7FEA05
:104C30006C5C1BD001B050EA410C0CBF52EA430C33
:104C400091EA030F02BF90EA020F0020704710F1B3
:104C5000000F91EA030F58BF994208BF90422CBF42
:104C6000D8176FEAE37040F0010070474FEA410C3B
:104C70007FEA6C5C02D150EA013C07D14FEA430C59
:104C80007FEA6C5CD6D152EA033CD3D05DF8040BCA
:104C9000704700BF8446104662468C4619466346FC
:104CA00000E000BF01B5FFF7B7FF002848BF10F1D3
:104CB000000F01BD4DF808EDFFF7F4FF0CBF012018
:104CC00000205DF808FB00BF4DF808EDFFF7EAFF94
:104CD00034BF012000205DF808FB00BF4DF808ED4F
:104CE000FFF7E0FF94BF012000205DF808FB00BF44
:104CF0004DF808EDFFF7CEFF94BF012000205DF8CE
:104D000008FB00BF4DF808EDFFF7C4FF34BF0120DA
:104D100000205DF808FB00BF4FEA410C7FEA6C5CA5
:104D200002D150EA013C0AD14FEA430C7FEA6C5CA5
:104D300002D152EA033C02D14FF0000070474FF01D
:104D4000010070474A0011D212F5001211D20DD5A0
:104D50006FF47873B3EB62520ED44FEAC12343F081
:104D6000004343EA505323FA02F070474FF000002B
:104D7000704750EA013002D14FF0FF3070474FF0DA
:104D8000000070474FEA4102B2F1E04324BFB3F59F
:104D9000001CDCF1FE5C0DD901F0004C4FEAC002B2
:104DA0004CEA5070B2F1004F40EB830008BF20F096
:104DB0000100704711F0804F21D113F13872BCBF50
:104DC00001F00040704741F480114FEA5252C2F1A5
:104DD0001802C2F1200C10FA0CF320FA02F018BFEE
:104DE00040F001004FEAC1234FEAD32303FA0CFC41
:104DF00040EA0C0023FA02F34FEA4303CCE77FEAD0
:104E0000625307D150EA01331EBF4FF0FE4040F419
:104E10004000704701F0004040F0FE4040F40000C8
:104E2000704700BF10F8012B11F8013B012A28BF81
:104E30009A42F7D0D01A7047034613F8012B002A84
:104E4000FBD1181A01387047000000000000000074
:104E500001F0FF01102A2BDB10F0070F08D010F82B
:104E6000013B013A8B422DD010F0070F42B3F6D12F
:104E7000F0B441EA012141EA014122F007047FF048
:104E800000070023F0E80256083C85EA010586EA9F
:104E9000010685FA47F5A3FA87F586FA47F6A5FADB
:104EA00087F68EB9EED1F0BC01F0FF0102F00702E7
:104EB00032B110F8013B013A83EA010313B1F8D192
:104EC0000020704701387047002D06BF3546033873
:104ED000073815F0010F07D1013015F4807F02BFAC
:104EE000013015F4C03F0130F0BC0138704700BFFD
:104EF00002440346934200D1704703F8011BF9E7CF
:104F000008B501F03DFB2F4A2F480023012103F093
:104F1000F5FE0121002003F003FF01F005F901F087
:104F20002FFB2A492C2001F02BFA2949002001F0FF
:104F3000A1F9284B28499A6942F008029A619A69B6
:104F400042F400629A61012003F0A4FF012004F002
:104F500053F82249002003F09DFF002004F04CF894
:104F60001F4A2049012001F087FE272001F0E4FAC2
:104F7000282001F0E1FA682001F0DEFA1F2001F09C
:104F8000DBFA212001F0D8FA582001F0D5FA0F21E0
:104F9000582001F0FDFA0F211F2001F0F9FA0F212E
:104FA000212001F0F5FA0221682001F0F1FA012137
:104FB000272001F0EDFABDE808400021282001F08B
:104FC000E7BA00BF000000204CC5FF1F98C5FF1FB7
:104FD000104101000080044004410100F84001003C
:104FE000B8C9FF1F0400002030B5AFB0282200214F
:104FF0000BA8FFF77DFF1B4B03F114059C461A4BD2
:105000000F930422CDE90932032205238DF82F20C6
:105010008DF847201093BCE80F000DF1100EAEE89C
:105020000F0095E8070001ACDCF80030AEF8003066
:1050300084E8070009A9022001F0A2F9022001F08A
:10504000D3FA15AA04A9022001F0BEFB21460220D2
:1050500001F08EFD022001F075FD742001F078FA58
:105060002FB030BDC83E010000D0044070B51B4ECB
:1050700006F1200EBEE80F00ACB00DF11C0CACE840
:105080000F00BEE80F00ACE80F009EE80F0006F12D
:1050900050058CE80F000FCD02AC0FC4643696E8C3
:1050A00003002B680090ADF80410022007A92380AC
:1050B00001F066F9022001F097FA742001F048FA35
:1050C00013AA02A9022001F07FFB6946022001F029
:1050D000B5FC022001F036FD2CB070BDC83E0100C9
:1050E000014B70221A70704700000240024B587842
:1050F00000F00100704700BF00000240034B1B7826
:1051000013F0710F14BF012000207047000002400F
:10511000014B70221A707047000002402DE9F843DD
:10512000B24C94F89631FBB194F8FC31E3B104F53C
:10513000F0700CF0B3FB002867D1002594F895615E
:10514000002E34D094F85C62002E40F0408194F838
:1051500098311BB194F81C32002B57D1A4480CF0A5
:1051600093FB90B3032651E094F8973173B194F810
:10517000DC318BB994F8BC31002B40D09D480CF049
:105180008DFB002800F06B8108263FE094F8BC31CD
:1051900083F00103002BEDD097480CF07FFB002833
:1051A00040F0668194F895610125002ECAD1B4F8CB
:1051B000C4325BBB94F898211AB194F81C221E46A5
:1051C00022BBB4F8C632002BCCD194F89831002B16
:1051D00040F05081002D00F05C8194F89931002B53
:1051E00000F04F8194F83C32002B40F04A81834814
:1051F0000CF04AFB002800F05781022606E07E48AA
:105200000CF042FB002800F02C8105267948B4F808
:10521000807184F8C862B4F882510CF00BFB94F8EA
:105220009731BFB2ADB2002B40F0C48094F89631F4
:10523000002B40F0BB8094F89431002B40F0B280FA
:1052400094F89531002B40F0A98094F89831002B08
:1052500040F0A08094F89931002B40F0978094F8AA
:10526000943113B194F87C32BBB1B4F8C032A4F8D5
:10527000C232D4F89032D4F89422FF1AD4F8803293
:1052800003FB07F794F884321F413A444FF6FF714D
:10529000002004F007F9A4F8C00294F8953113B186
:1052A00094F85C32BBB1D4F8B022D4F8A032AD1A75
:1052B00003FB05F594F8A432D4F8B4221D412A4426
:1052C000B4F8C432A4F8C6324FF6FF71002004F0DF
:1052D000E9F8A4F8C40294F8983153B194F81C3258
:1052E0003BB1B4F89A31B4F8C4229A4238BFA4F85A
:1052F000C432EFF31083424F3B6072B64149D4F899
:10530000D0000BF0D9FB4049D4F8E8000BF0D4FBF7
:10531000D4F8289094F8048199F8041049B1002534
:105320002B4628FA03F2D20721D40135EBB28B4287
:10533000F7D33B6883F31088082E16D8DFE806F011
:1053400082760505080E156E4900B4F8EC35ABBB46
:10535000BDE8F8432D4804210DF020BE94F8E8354F
:10536000002284F8E925002B3AD1BDE8F883D9F86A
:105370000000C3EBC30300EB83000BF091FB01358E
:1053800099F80410EBB28B42CBD3D2E71B480CF058
:1053900051FA64E71E480CF04DFA5BE714480CF034
:1053A00049FA52E71B480CF045FA49E71A480CF055
:1053B00041FA40E710480CF03DFA37E70023A4F823
:1053C000EC351248BDE8F84305210DF0E7BD002695
:1053D0001CE794F8E8350122934284F8E925C4D00B
:1053E000BDE8F843094801210DF0D8BD20CBFF1FCF
:1053F00060CDFF1FC0CCFF1FE0CCFF1F40CDFF1FC3
:10540000C0050020DCCBFF1FF4CBFF1FD8D0FF1F4F
:1054100020CDFF1F80CDFF1F00CDFF1F94F8E83582
:105420000222934284F8E9259FD0D9E7B4F8C0322C
:10543000002B8AD0A4F8EC352048BDE8F8430221BF
:105440000DF0ACBDB4F8C432002B3FF47EAFA4F82D
:10545000EC351A48BDE8F84303210DF09FBD022545
:105460006CE617480CF010FA00283FF466AECCE664
:105470000726CBE613480CF007FA00287FF472AE3B
:10548000A8E694F8943133B194F87C3273B10126D4
:10549000BCE60626BAE6B4F8C032002BF7D1B4F861
:1054A000C232002B7FF4A9AE0426AFE606480CF00A
:1054B000EBF900287FF4A1AEF6E700BFD8D0FF1FBC
:1054C000C0CCFF1F20CDFF1F80CDFF1F10B50C4C9F
:1054D00082B001A9201D0DF023FB2368019A9B6C6B
:1054E0005178D2689BB222F8113020460BF070FA46
:1054F000019A53680BB19068984702B010BD00BF85
:10550000F8C9FF1F10B50D4C82B001A904F12000AD
:105510000DF006FB2046019A50F81C3F51789B6C19
:10552000D2689BB222F811300BF052FA019A5368FC
:105530000BB19068984702B010BD00BFF8C9FF1FBB
:10554000F0B51D4C23685A69950283B018D5271D04
:1055500008E0DB698DF807300DF0CAFA23685A6954
:1055600090020DD56269A669E568921BAA420DF109
:1055700007013846EDD19A6922F400129A61236836
:105580005A69110215D50D4E08E00DF0C9FA2368CD
:105590009DF807201A775A6912020AD5E56A226B2C
:1055A00095420DF107013046EFD19A6922F40002CD
:1055B0009A6103B0F0BD00BF4CD8FF1F68D8FF1F31
:1055C000F0B51E4C636B5A69950283B019D504F18E
:1055D000380708E0DB698DF807300DF089FA636B56
:1055E0005A6990020DD5A26CE66C256C921BAA42FA
:1055F0000DF107013846EDD19A6922F400129A6143
:10560000636B5A69110216D50D4E09E00DF088FA48
:10561000636B9DF807201A77636B5A6912020AD5EB
:10562000256E626E95420DF107013046EED19A6902
:1056300022F400029A6103B0F0BD00BF4CD8FF1FF6
:105640009CD8FF1FF8B5194E337C43B300252B4679
:1056500040F2746706E00DF09DFC0135327CEBB240
:105660009A421CD9F46807FB034404F53E70D4F851
:105670000C3394F80D210133032AC4F80C33EAD11A
:1056800004F1B401D4F8C8000BF0EAF9D4F8E00052
:1056900004F1CC010BF0E4F904F53E70DBE7044BB8
:1056A0001A6822F400721A601B68F8BD20CBFF1F35
:1056B00000800340B84A13682DE9F0410133B74C2C
:1056C0001360B4F8741104F5777089B20CF0AAFE77
:1056D00004F12C010546206C0BF0C2F9042D12D800
:1056E000DFE815F0EE00050005001100FF0094F85A
:1056F000E035D4F8C02543F0080384F8E03513788A
:10570000032B40F01881D4F80835002B00F0D2802C
:10571000D4F80015D4F810050A68121A934200F262
:10572000C98094F80C35002B40F0C6800B68C4F893
:105730001035EFF310839A4E336072B69949A06D1D
:105740000BF0BAF99849206F0BF0B6F9D4F828801D
:1057500094F8087198F8041051B100252B4627FAE7
:1057600003F2D20700F1D7800135EBB29942F6D8A7
:10577000336883F31088B4F878118C4889B20CF040
:1057800051FEB4F876118A4889B20CF04BFE94F8B9
:105790004834013B012B40F2D38094F88034013B24
:1057A000012B40F23B81EFF31083336072B68149E5
:1057B000D4F888000BF080F994F8A433002B40F063
:1057C0005E8194F8D033002B40F06381D4F82880B8
:1057D00094F80C7198F8041051B100252B4627FA63
:1057E00003F2D00700F1C2800135EBB28B42F6D351
:1057F000336883F31088B4F87A116F4889B20CF0DB
:10580000B5FCB4F87C116D4889B20CF0AFFCB4F86B
:105810007E116B4889B20CF0A9FC94F87E33012B01
:1058200000F01E8194F8AA13012900F0FE8094F87C
:10583000D623012A00F00381022918BF022B00F0B1
:105840003A81A2F10205B5FA85F56D09002D40F007
:10585000328194F8E435DB0700F12181227C4AB3E0
:105860000026354640F2746703E00136F5B29542F2
:1058700020D2E36807FB053595F8EC32002BF4D015
:1058800005F19C01D5F8B0000BF0EAF8B5F8441129
:1058900005F5337089B20CF069FC012800F0B18085
:1058A000022800F09380002870D0227C0136F5B2E7
:1058B0009542DED3BDE8F0810023C4F8083538E70F
:1058C00094F8E43599077FF51EAF217CE068162235
:1058D00007F02EF894F8E4356FF3410384F8E435CB
:1058E00011E794F8E43598073FF50DAFB4F83C2183
:1058F000217CE068162306F0FBFF022331484FF4B9
:10590000FA72FA210BF054FF94F8E43543F00203E5
:1059100084F8E435F7E6D8F80000C3EBC30300EBE6
:1059200083000BF0BDF8013598F80410EBB28B4200
:10593000FFF415AF1CE7002123480DF02FFBE2E632
:1059400094F8803494F8E025013B42F01002012BDA
:1059500084F8E02562D9D4F8C0351B78032B3FF4D6
:1059600022AF002118480DF019FB1CE7D8F8000001
:10597000C3EBC30300EB83000BF092F8013598F8FA
:105980000410EBB28B42FFF42AAF31E70121284625
:1059900006F08EFD227C68E7C405002020CBFF1FA7
:1059A000C005002064CBFF1F7CCBFF1F34CFFF1F3F
:1059B0006CCFFF1F94CBFF1F78CEFF1FA4CEFF1F1D
:1059C000D0CEFF1FECCDFF1FD8D0FF1FB5F844315C
:1059D000D5F850239BB29B1AD5F8402302FB03F362
:1059E00095F844231341D5F854234FF6FF711A4418
:1059F000002003F057FD012281B2284606F032FD57
:105A000053E7D5F800331B78072B3FF44EAF002146
:105A100005F53E700DF0C2FA227C26E794F8E035D9
:105A200043F0200384F8E03595E794F8E03594F8E6
:105A3000D62343F00203012A84F8E03505D194F817
:105A4000E03543F0040384F8E035D4F8C0351B7822
:105A5000032B3FF403AF00212E480DF09FFAFDE623
:105A600094F8E03594F8AA2343F00103012A84F85E
:105A7000E035DAD094F8D633012BE6D1DFE72649BA
:105A8000D4F8A0000BF018F894F8D033002B3FF4B2
:105A90009DAE2249D4F8B8000BF00EF896E6217CB2
:105AA000E068152206F044FF94F8E43565F300033E
:105AB00084F8E435D2E6B4F87C31D4F8B404D4F8F0
:105AC000A42494F8A8149BB21B1A02FB03F3D4F885
:105AD000B8240B411A444FF6FF71002003F0E2FC9A
:105AE0000246152392B2217CE06806F001FF94F88B
:105AF000E435DA073FF5B2AEFA2201230848114631
:105B00000BF056FE94F8E43543F0010384F8E435D5
:105B1000A4E600BFD8D0FF1FACCBFF1FC4CBFF1F34
:105B2000ECCDFF1F4D48F8B504682268236BA16ACD
:105B300012F0005F14BF072500250B40EB40DE0785
:105B400025D42268236BA16A12F0005F03EA0103E7
:105B500014BF09250125EB40D90775D42268236BB2
:105B6000A16A12F0005F14BF0B2502250B40EB4029
:105B7000DA076FD42268236BA16A12F0005F14BFAA
:105B80000D2503250B40EB40DB0760D4F8BD4FF03B
:105B9000000CCCEBCC0300EB83034FEACC0E93F864
:105BA0002E20012A0ED0022AF0D0052A3CD0012254
:105BB000AA402263A16A002021EA0202A26283F8BD
:105BC0002E00F8BD04EB05131946D3F88020D3F856
:105BD0008020C2F30342082A03F1800701F1880103
:105BE00003D9093A1E4ED2B2B25CAEEB0C0600EB02
:105BF0008606AEEB0C0EB277D3F8803013F4001F9C
:105C00007B6800EB8E0608BF9B0C73611C2303FBB3
:105C10000C0024300DF04EFC0123AB402363032322
:105C2000A26886F82E30F8BDAA00203254F822204F
:105C3000C2F30362042A4FF0010204BF02FA05F521
:105C4000256383F82E20F8BD4FF0010CA1E74FF03B
:105C5000030C9EE74FF0020C9BE700BF30CAFF1F0A
:105C60002441010010B5FFF74BF972B6104C1148F2
:105C70002368013323600BF069F80F4A0F490D4880
:105C800004230BF0B7F84FF4DA730D4A09484FF0CC
:105C9000A0510BF0AFF80BF0B9FC0A480AF014FB66
:105CA00023681BB1013B236003B962B610BD00BF7E
:105CB000BC050020BCCAFF1F3C410100FC0F0014C2
:105CC000443F010020CBFF1F80B5FFF7CBFF814C85
:105CD000814E824FDFF81492A9F1400AD4F8CC34F7
:105CE000002B4BD0D4F8C404D4F8D4140268521A50
:105CF000934243D894F8D034002B00F0C2800023A4
:105D00003846C4F8CC340DF045F994F82831002B0E
:105D100000F0C280012B19D148460BF08BFD504694
:105D20000BF088FD94F85C32002B00F0BC80217CE5
:105D3000E06806F047FCD4F810010CF0C5FE28B16D
:105D400094F8E13543F0010384F8E13594F8143117
:105D50007BB100252B464FF06408D4F8100108FBF6
:105D600003000CF085FC013594F81421EBB29A4243
:105D7000F3D894F83131002B40F09180D4F8E0341E
:105D8000A3B1D4F8D804D4F8E8140268521A9342A4
:105D90000CD894F8E434002B6FD00023C4F8E0341E
:105DA0004F480CF087FF4F480BF088FCD4F8F434D0
:105DB000002B93D0D4F8EC04D4F8FC140268521AE7
:105DC00093428BD894F8F834002B52D00023C4F8B7
:105DD000F434237EF3B16269013BD9B2342502F178
:105DE000340315FB013500E03433116848690003C2
:105DF0000DD55069D2F818E0D2F80CC0A0EB0E0215
:105E0000624504D04E618A6942F400128A619D4263
:105E10001A46E9D1217CE06806F030FC70B194F8B4
:105E2000E035D4F8C02543F0400384F8E03513781A
:105E3000032B03D0002138460DF0B0F894F8383128
:105E4000002B3FF447AF28480BF0F4FC00283FF448
:105E500041AF25480BF022FD58B394F83831012B9F
:105E60007FF437AFB4F83A21217CE06806F016FDE4
:105E70002FE70368C4F8FC34ABE70368C4F8E834E0
:105E80008EE70368C4F8D43438460DF083F894F8EC
:105E90002831002B7FF43EAFFFF740F956E7E06969
:105EA0000AF028FE6AE794F81C32002B7FF43FAF1B
:105EB00041E70D480BF0E8FC00283FF40AAF94F8E6
:105EC0003831012B7FF405AF217CE06806F0FCFC43
:105ED000FFE600BF20CBFF1F00C01FC0D8D0FF1FB0
:105EE00048D0FF1FECCDFF1F30CEFF1F60CDFF1F3E
:105EF00001230F4A02604FF0080C00218263838067
:105F0000042203848387A0F8583080F8523080F848
:105F10006E30084B80F80AC080F826C0A0F80B103D
:105F2000A0F82710827680F83620C3614365704759
:105F3000051EF10C051FF10C10B50B7C0C465A0028
:105F400053B9B0F8EC358BB9042100F5B7600DF00A
:105F500025F80123A37610BDA0F8EC25022100F559
:105F6000B7600DF01BF80123A37610BDA0F8EC2557
:105F7000052100F5B7600DF011F80123A37610BDDF
:105F800030B5C46894F81031D4F8F023012BB4F87C
:105F9000123118BF524202FB03F3002BBCBF03F5C2
:105FA0007F43FF331B140B8294F80C31002B40F01D
:105FB0008380B4F90CC4B4F90A240CFB0CFC02FB7A
:105FC00002C2002A40F38880B2F5801FCCBF4FF494
:105FD00000538023B2FBF3FC9C44B3EB5C0F4FEA0D
:105FE0005C057CD0B2FBF5FCAC44B5EB5C0F4FEA32
:105FF0005C0374D0B2FBF3FC9C44B3EB5C0F4FEA40
:106000005C056CD0B2FBF5FCAC44B5EB5C0F4FEA21
:106010005C0364D0B2FBF3FC9C44B3EB5C0F4FEA2F
:106020005C055CD0B2FBF5F32B44B5EB530F4FEAA4
:10603000530C53D01FFA8CFC4FEA4C0CB2F5801F66
:10604000D4BF80234FF40053B4F804E0B2FBF3F460
:106050001C440CFB0EFCB3EB540FCCF3074C4FEA83
:10606000540523D0B2FBF5F42C44B5EB540F4FEAA2
:1060700054031BD0B2FBF3F41C44B3EB540F4FEAB0
:10608000540513D0B2FBF5F42C44B5EB540F4FEA92
:1060900054030BD0B2FBF3F41C44B3EB540F4FEAA0
:1060A000540503D0B2FBF5F22A4453089BB25B00BF
:1060B0000EFB03F31B0E02E04FF0000C63460424BA
:1060C0008C76B0F8C02281F812C0120ACB7481F825
:1060D0002C2081F8364030BD9C46F0E763461FFA1D
:1060E00083FC4FEA4C0CA9E74FF0E02210B4D2F841
:1060F000881D0B4B0B4C41F47001C2F8881DD2F87F
:10610000341F21F08041C2F8341F42F220105C603D
:106110004FF6FF7259685DF8044B18609A6070473B
:106120000020054020C528D91B4B1A691B69C3F301
:106130000363C2F30342013B0132052B0FD8DFE8B2
:1061400003F00903230E0E0F134BD3F8083213F09C
:10615000010302D0114BB3FBF2F3114A13607047F5
:106160000D4B0E48D3F80816D3F80836C1F30221B8
:10617000C3F304431033013100FB03F34900B3FBC5
:10618000F1F3B3FBF2F3E8E70349064BD1F8081348
:10619000B3FBF2F3E1E700BF0040064000127A00D3
:1061A000B4D8FF1F006CDC024FF0E021034BD1F8A4
:1061B0000C2D92B21343C1F80C3D70470400FA0550
:1061C0001849194A914208B503D01848521A0DF0DF
:1061D00071F91749174A914203D01748521A0DF026
:1061E00069F91648164A904203D0121A0021FEF7A8
:1061F0007FFE1449144A914203D01448521A0DF0FC
:1062000059F9134B13498B4207D0134A920804D013
:10621000184692000DF04EF903464FF0E022C2F806
:10622000083D08BD005501004C6A010000C4FF1F75
:106230004C6A0100D86C01004CD9FF1F00000020FF
:10624000DC050020D86C0100D86C010000000020A3
:1062500000C0FF1F004000000004000038B50446E5
:106260000D4600F08DF9257000F07EF9002038BD54
:10627000002070472DE9F0411B480C4600F036F82D
:10628000054618BB23780BB3174F064603466268D2
:1062900003EB430302EB030CD15C9CF8012038466E
:1062A00000F052F801362278F3B29A42EFD86AB180
:1062B00000266768DFF83080334603EB43033B4436
:1062C000997831B90136F3B29342F6D32846BDE846
:1062D000F0815978404600F04BF801362278F3B24D
:1062E0009342F3D26768E8E70030064010B5144CDB
:1062F000A4F1350212F8013B9B08944250F8233078
:106300004FEAD37103D00029F4D0012010BD002939
:10631000FBD10C493F2401F1350E11F8013F4FEA42
:10632000930C03F0030350F82C20DB0004FA03F372
:1063300022EA03038E4540F82C30EED1002010BD38
:10634000A14101006B41010000B54FEA920E02F03D
:10635000030250F82E30D2004FF03F0C91400CFA5F
:1063600002F223EA0203194340F82E105DF804FB01
:10637000890850F8213043F0004340F8213070473D
:1063800068B170B506460C4600252046013500F080
:1063900009F8AE4204F11804F7D1002070BD0020C6
:1063A000704700BF70B5D0E90021047A52F821305F
:1063B000012C68D0022C63D0002C5ED0447A90F877
:1063C0000AC090F80BE023F0100343EA04134FEAED
:1063D0008C1C23F4E8630CF0400CBEF1080F43EA78
:1063E0000C0333D04FEA0E2404F4E064234323F477
:1063F000004C037B847B4CEAC33C437B1B042CF4A2
:10640000702C03F4702343EA0C030CB143F0807347
:1064100042F821304FF0010CD2F8C040C37B0CFA97
:1064200001FC8B4024EA0C042343BEF1010FC2F8A7
:10643000C0306FEA0C0300D070BD0269057D54695D
:10644000002D30D0012D23D0546170BD374D384C14
:10645000AA4264682AD0374DAA42C8D1002961D027
:106460000129C4D104F00705314C666826F00F06F7
:106470006660666835436560B9E723F002039DE70F
:1064800043F003039AE723F0010343F0020395E787
:10649000407D00FA01F11068034044EA0C040B430C
:1064A00013605461D1E71C405461CEE704F00F053E
:1064B00010299CD801A656F821F000BF1F650000E6
:1064C00019650000EF630000EF630000EF63000058
:1064D000EF630000EF630000EF630000EF63000074
:1064E000EF630000EF630000EF630000EF63000064
:1064F000136500000D6500000765000001650000E0
:1065000004F00D05B0E704F00E05ADE745F0080511
:10651000AAE745F00405A7E745F00205A4E745F022
:106520000105A1E704F00B059EE700BF00A00440B1
:106530000080044000B004404109044A00F01F00FC
:106540000123834042F82130704700BF00E100E0A2
:106550004309044900F01F0001222033824041F822
:106560002320704700E100E0044A1368002B03DD9C
:10657000013B136003B962B6704700BF7805002085
:1065800072B6024A13680133136070477805002021
:10659000002808DB00F16040090100F56140C9B244
:1065A00080F800137047C0F38102012AC0B20DD0F9
:1065B00010B40A4B0A4C00F00300022A18BF23460D
:1065C0000901C9B219545DF8044B7047054B00F03E
:1065D00003000901C9B21954704700BF1CED00E067
:1065E00020ED00E018ED00E010B5054B044653F82F
:1065F000200000F087F9034B002043F8240010BD71
:10660000A44101007C05002010B46E4B4C7853F877
:1066100020301CB98A78002A00F089800A78002A84
:1066200040F0C580D3F88C2042F48022C3F88C203F
:10663000D3F88C2042F40022C3F88C20D3F88C20AD
:1066400042F48012C3F88C20D3F88C2042F400323C
:10665000C3F88C20C87AD3F88C20003822F480321A
:1066600018BF012042EA0042C3F88C20D3F88C20E6
:1066700042F08002C3F88C20002C00F09C809A6DC0
:106680008C78C87842F010029A65002C00F0838064
:106690009A6D42F020029A659A6D002800F083807E
:1066A00042F040029A659A6D08795DF8044B22F039
:1066B000020242EA40029A659A6D487922F001028C
:1066C00002439A65087A9A6D003818BF012022F0BB
:1066D000080242EAC0029A658A79D3F88C00120156
:1066E00020F0100002F010020243C3F88C20CA7997
:1066F000D3F88C00520120F0200002F02002024367
:10670000C3F88C204A7AD3F88C00897A920020F062
:10671000040002F004020243C3F88C20D3F88C205A
:1067200022F001020A430020C3F88C207047C87889
:1067300000287FF473AF0A78002A38D0D3F88C2071
:1067400042F48062C3F88C20D3F88C2042F40062BB
:10675000C3F88C20D3F88C2042F48052C3F88C20EC
:10676000D3F88C2042F40072C3F88C20CA7AD3F894
:106770008C40120202F4807224F480742243C3F825
:106780008C20D3F88C2042F08002C3F88C209A6DC4
:1067900022F010029A659A6D22F020029A659A6D95
:1067A00000287FF47DAF22F040029A657BE701204C
:1067B0005DF8044B70479A6D8C78C87822F010020F
:1067C0009A6562E7A44101002DE9F043DFF81891D2
:1067D00059F8207083B027B10126304603B0BDE8D8
:1067E000F0833E4B164653F820808B7B1370577016
:1067F0009780044649F820200D465822394606F174
:106800000C00FEF775FB404600F07CF8697B4046C3
:1068100000F06CF859F8243001971B78D8F8002064
:10682000022B02F0070950D0032B34D0012B2AD0C1
:10683000B7602B7B9A1E022A36D9082B34D000264B
:10684000D8F86C306A7C297C23F0400343EA821339
:10685000C8F86C30EB7BD8F884209B0122F0C00292
:10686000DBB21343C8F88430D8F800301C4A09B3AF
:1068700043F480731057C8F80030FFF75DFE3046D0
:1068800003B0BDE8F083384601A902F001FB019F87
:1068900027FA09F7CCE7134B01A9185D02F0F8FAC3
:1068A000019F27FA09F7C3E729462046FFF7ACFE08
:1068B0000646C5E723F480731057C8F80030FFF789
:1068C00047FE304603B0BDE8F08301A91A2002F06C
:1068D000DFFA019F27FA09F7AAE700BFA4410100E8
:1068E000B8410100B44101007C050020436D43F034
:1068F00001034365036801F0070123F007030B431D
:106900000360704700220423416F426743650368B8
:10691000354B026042608260C264016D026598423C
:106920008265C265026642668266C16EC2660267A1
:106930008267C267C0F88020C0F88420C0F8882031
:10694000C0F88C20C0F89020C0F89420C0F898209F
:10695000C0F89C201CD003F58053984218D0C3681F
:10696000C2600261436942618261C369C2610262BD
:10697000436A42628262C36AC2620263436B4263D9
:106980008263C36BC2630264436C42648264704777
:10699000C0F80022C368C2600261C0F804224369E3
:1069A00042618261C0F80822C369C2610262C0F814
:1069B0000C22436A42628262C0F81022C36AC26239
:1069C0000263C0F81422436B42638263C0F818224A
:1069D000C36BC2630264C0F81C22436C42648264CD
:1069E000C0F82022704700BF0090034003290AD856
:1069F000DFE801F01B130A02836F120392B223F443
:106A000070431A4382677047836F120202F4706208
:106A100023F470631A4382677047836F1201D2B206
:106A200023F0F0031A4382677047836F02F00F026E
:106A300023F00F0313438367704700BF3E4B30B40E
:106A400053F82040002C68D06378002B65D13B4B75
:106A50003B4D53F8203048881A6822F018021A601B
:106A60001A6822F400721A601A68DA6C2A4002432B
:106A7000DA649A6888882A4002439A60D3F88020B2
:106A800022F00102C3F88020DA6822F00402DA6002
:106A9000DA6822F00802DA605A6922F004025A61C8
:106AA0005A6922F008025A61DA6922F00402DA61B6
:106AB000DA6922F00802DA615A6A22F004025A62A4
:106AC0005A6A22F008025A62DA6A22F00402DA6292
:106AD000DA6A22F00802DA625A6B22F004025A6380
:106AE0005A6B22F008025A63DA6B22F00402DA636E
:106AF000DA6B22F00802DA635A6C22F004025A645C
:106B00005A6C22F008025A640A78062A0DD0072A25
:106B100006D06270002030BC7047012030BC704746
:106B2000196841F020011960F3E7196821F020018C
:106B3000196000206270EEE77C050020A44101008E
:106B40000000FFFF084B094A53F8203052F820108C
:106B50001B780A68DB0022F0180203F018031343C5
:106B60000B600020704700BF7C050020A44101009D
:106B70003E4B70B553F82060002E61D00D46717801
:106B800000295DD13A4B53F82040D4F8803023F0EF
:106B90000103C4F88030236823F0180323602B78A6
:106BA000D4F88020DB0022F0080203F0080313432E
:106BB000C4F88030AB79002B44D1D4F8803023F076
:106BC0008003C4F880306B7A002B48D0D4F8803032
:106BD00043F04003C4F88030AA7A01212046FFF731
:106BE00005FF2B7AD4F880206988A8885B0122F001
:106BF000200203F020031343C4F88030EB7AD4F86A
:106C000080201B0122F0100203F010031343C4F88C
:106C10008030E36C174A13400B43E364A3681340CE
:106C20000343A360636813400B436360D4F8803070
:106C3000052243F00103C4F880307270002070BD5B
:106C4000012070BDD4F8803043F08003C4F8803058
:106C5000EA792046FFF7CAFE6B7A002BB6D1D4F84A
:106C6000803023F04003C4F88030BAE77C05002070
:106C7000A44101000000FFFFAC4B2DE9F04753F8A1
:106C800020402368002B07460E46154605DB2046AC
:106C900000F09CFA204600F071F96B7A62685B03A1
:106CA00022F4005203F4005313436360204600F0C3
:106CB00051F9204600F08AFA204600F06BF99C4B0F
:106CC000DB5D002B00F0D08023682A7A23F4006378
:106CD000002A00F0D18043F400632360236D43F069
:106CE00000432365D4F8003C23F41F43C4F8003C60
:106CF00023681B0540F1B580636B43F480536363E5
:106D0000AB79022B03D0236843F4003323606B7903
:106D1000002B40F0C88095F83430012B00F0CE8075
:106D20001BB9236823F400432360E979204600F06F
:106D30000DFB2968204600F0A7F9002840F092805A
:106D4000236813F4006FEB6800F0C0802A69216D9E
:106D50009B02520102F478729BB213436A6902F0FB
:106D60001F0201F000411343D5E906022165714974
:106D7000120401EA405102F4F8120B431343226D4E
:106D80006D49134323656A6A2B6AD4F8040C9B028D
:106D90005201D2B203F4F8431343AA6A02F0070285
:106DA00001401343D5E90B02C4F8041C63491204E3
:106DB00001EA005102F4E0220B431343D4F8042CFF
:106DC0001343C4F8043CA979204600F04BFAAB7990
:106DD000032B02D0204600F0EDF9594BD85710F1A3
:106DE000800F01D0FFF7A8FB564B574CD857FFF741
:106DF000A3FB564BD857FFF79FFBE05710F1800FCE
:106E000001D0FFF799FB3C4494F9020010F1800F88
:106E100001D0FFF791FB06F10409C8464C464FF03C
:106E2000000A0AE00AF1010ABAF1200FA07044F842
:106E3000040C587104F1080466D020460021FFF7C5
:106E40000DFA06EBCA030028ECD0BAF1000F08D007
:106E500009EBCA09404608F10808FFF709FAC145DD
:106E6000F8D10120BDE8F0872B7A002BF9D1AB795E
:106E7000022B7FF448AF4AE72360236D23F00043E1
:106E80002365D4F8003C23F41F43C4F8003C236876
:106E90001A05E6D4636B23F480536363AB79022B4A
:106EA0007FF431AF33E72979204600F0B9F80028A4
:106EB000D8D195F83430012B7FF432AF2368990094
:106EC000CFD5236843F4004323602EE76A69A8699D
:106ED0006168120402F4E02C2A6903F00703D2046B
:106EE00043EA006302F4601243EA0C031343EA69C5
:106EF000920502F4400213434FF6F87211406160AC
:106F00006268134363605EE795F8343086F81131A8
:106F100095F835300E4A86F81031C6E94000C6E9CA
:106F2000420042F82760BDE8F08700BFC041010081
:106F3000BC4101000000E07F188308C00000F03F62
:106F4000D4410100CC410100D0410100C841010001
:106F50008C0500200368DA020ED5036823F0004395
:106F60000360036823F080430360036823F08053C9
:106F7000036003681B01FCD4704700BF0368002B4B
:106F800006DB036843F0004303600368DB02FCD5C3
:106F9000704700BF10B4036843F0007303600368D8
:106FA00013F00073FBD10268194942F48052884201
:106FB000026027D0174C041BB4FA84F4640900F172
:106FC000800221014FEA841C2CB100240133634567
:106FD00042F8044BFAD341B100F5086303EB810298
:106FE000002143F8041B9A42FBD14FF0FF330A4AB9
:106FF0000361002143615DF8044B83618162036397
:1070000002627047054A20214FF0800CDDE700BF87
:10701000004002400050024006003B008040024019
:10702000174B984229D0174A821AB2FA82F25209B3
:107030001201036813F400631DD110B4046844F016
:1070400000540460446B090624F0706401F0706120
:1070500021434FF0FF344163846442B16FF06044D8
:1070600003F508710133934240F82140F8D1002024
:107070005DF8044B7047012070472022D9E700BF1C
:10708000004002400050024003682DE9F0411C0519
:1070900040F18380D0F8003CC3F301434FF0010E70
:1070A00003330EFA03FE0EF1080503681A0501F119
:1070B000FF346FD5D0F8003CC3F301430333012202
:1070C0009A400832D2B24FF40073B3FBF2F3920845
:1070D000B4FBF3F603FB164302FB03F303EBC61307
:1070E000203300EB83032B4400F520729A424DD3EA
:1070F0002F4B984255D003F58053C31AB3FA83F34C
:107100005B091B01994241D8036804F07F0423F016
:107110007F0323430360066816F0005633D191B312
:10712000B4460EF1080E01254FF400743246036890
:107130001B0538D5D0F8003CC3F30143033305FAEF
:1071400003F30833DBB24FEA9308B4FBF3F3B6FB67
:10715000F3F703FB176308FB03F303EBC7132033B9
:1071600000EB830640F8232006F1080372607644A2
:1071700003F8012BB342FBD10CF1010C5FFA8CFC3C
:107180008C456646D3D30020BDE8F0814FF44070B3
:10719000BDE8F081042220239AE710254FF0080E65
:1071A00083E72023AEE74FF004082023CFE700BF9A
:1071B00000400240036823F080530360036823F01B
:1071C000804303600368DB01FCD47047036843F02D
:1071D00080430360036843F0805303600368002B1F
:1071E00010B438DB012400238360036813F4006FBC
:1071F000036823D0DA0108D440F2D92101E08A42A1
:1072000003D882680368DB01F9D50368DA010AD480
:10721000816A0268036843F00073036003689B019E
:10722000FCD48162026034B9036843F00043036018
:107230000368DB02FCD55DF8044B7047DB01E4D446
:1072400082680368D901E0D4B32ADED88268036873
:10725000D901DAD4F8E7036823F00043002403607F
:10726000C1E700BF042904D8DFE801F009161B2894
:1072700004007047036843F00043036070470368ED
:1072800023F400030360436823F00803436043686A
:1072900023F4805343607047436843F0080343601E
:1072A0007047436843F480534360436823F0080306
:1072B0004360036823F4003303607047036843F0BE
:1072C00080430360036843F0805303600368002B2E
:1072D00010B435DB012400238360036813F4006FCE
:1072E000036823D0DA0108D440F2D92101E08A42B0
:1072F00003D882680368DB01F9D50368DA010AD490
:10730000816A0268036843F00073036003689B01AD
:10731000FCD48162026034B9036843F00043036027
:107320000368DB02FCD55DF8044B7047DB01E4D455
:1073300001E0B32AE1D882680368D901DDD4F8E717
:10734000036823F0004300240360C4E703681B05BF
:1073500007D5D0F8003C23F4403343EA0143C0F89A
:10736000003C704710B582B0002945D02A4AD2F8B7
:1073700000339C01C3F3406C34D4D2F8003323F4BF
:107380000003C2F800334FF08063C2F8003380B3CB
:107390008B7848784C7991F806E01B0200F00700E2
:1073A00003F4E0630343C2F804330878002C14BFED
:1073B0000123092300F0030043EACE53C2F8080377
:1073C000C2F80033D2F80033D80120D46423D2F8B5
:1073D0000013C90103F1FF3307D4002BF7D10320B9
:1073E00002B010BD022002B010BDD2F80823002B5D
:1073F000F5D0002002B010BD01234FF48072ADF82B
:1074000005308DF80230ADF800206946AEE7D2F8BD
:107410000833604602B010BD0040064030B484B06E
:10742000002953D03C4BD3F800219401C2F34065AE
:107430003CD4D3F80021394C22F40002C3F80021D7
:107440004FF08062C3F80021256000283AD04A7AC4
:10745000087A120200F0070002F4E0620243C3F867
:107460000421CA7988791201C00000F0080002F0F6
:10747000300202434879800000F004000243C3F860
:1074800008210A79012A3BD0022A32D052B30B6874
:1074900023607BB9204A224BD2F80011D2F80011A8
:1074A000013BFBD1032004B030BC7047022004B084
:1074B00030BC70471A4B1849D1F80021D20126D5AB
:1074C000002BEFD0002004B030BC7047154A164B9B
:1074D0008DF80C1040F20114CDE90032ADF80840EF
:1074E00069469FE70A7BD20542F00102C3F80021FA
:1074F000CDE7087B0D4A42EAC052C3F80021C6E737
:107500000A7BD20542F00112C3F80021BFE7002B2D
:10751000C8D0013BD0E700BF00400640B4050020C2
:1075200088E730000001000200127A000100030029
:1075300010B483B0002947D02B4AD2F80032C3F3ED
:1075400040649B0136D4D2F8003223F40003C2F821
:107550000032C2F8004240B388784C784B79000280
:1075600000F4E06004F007042043C2F80402087845
:1075700000F00100C2F80802887909799B0000290F
:1075800043EAC05314BF032101210B43C2F8003268
:107590006423D2F80012C80103D5D2F80812C90733
:1075A00002D463B1013BF4E74BB1002003B05DF8B6
:1075B000044B7047022003B05DF8044B7047032072
:1075C00003B05DF8044B70474FF48074012240F221
:1075D00001138DF80610ADF804408DF80220ADF8C7
:1075E00000306946A8E700BF0040064010B485B0EF
:1075F000002959D0454BD3F8002692014AD4D3F83C
:1076000000264FF0806422F40002C3F80026C3F87D
:107610000046002843D04A790879120200F007009A
:1076200002F4E0620243D3F800014878C3F804266C
:107630008A780002120402F4F81200F4E0600243B7
:10764000C3F808260A78012A59D0022A50D0002A05
:1076500047D02F4B2D491C688CB34FF47A73D1F867
:107660000026D00113D5D1F80021D2010FD5D1F8D1
:107670000806D1F80826C2F30442C0F302201032F3
:107680000130B4FBF0F000FB02F2520822D11BB330
:10769000013BE4E7022005B05DF8044B7047002091
:1076A00005B05DF8044B704740F201124FF4E0233F
:1076B0008DF80B10ADF80820019301A99AE740F26C
:1076C000E933D1F80026D40148BFD1F80021013BAD
:1076D000F7D101E0002BE2D1032005B05DF8044BA7
:1076E0007047CA79D20542F00102C3F80026B0E71C
:1076F000C979084A42EAC152C3F80026A9E7CA7903
:10770000D20542F00112C3F80026A2E7004006406D
:10771000B4050020010003001C4A1369C3F30113E0
:10772000022B30D0032B1AD0012B11D0184B184A42
:10773000D3F80031D2F8040113F080731CBF154B4D
:107740001B6810F0070002D0013823FA00F07047E0
:10775000106910F0020018BF4FF4FA4070470C4A4D
:10776000D2F8003313F0807318BFD2F80833084AF8
:1077700018BF094BD2F8040310F00700E7D0013816
:1077800023FA00F0E3E7054B1868704700800440D7
:1077900000400640B4050020006CDC029405002087
:1077A000344B1B69C3F30363013B8446052B35D877
:1077B000DFE803F02B4A213434032E4BD3F80006C4
:1077C00010F080702BD0D3F8000110F0807026D01C
:1077D000294A106818B3D3F80816D3F80836C3F34B
:1077E0000443C1F3022110330131B0FBF1F202FB7B
:1077F00003F3580813E01F4BD3F8000310F0807018
:107800000DD0D3F808331D4809E01A4BD3F8000116
:1078100010F0807003D0184B186800E00020154964
:107820000B69BCF1010FC3F3034303F10103B0FB88
:10783000F3F018D0BCF1020F14D10B6903F00F0361
:107840000133B0FBF3F070470A4BD3F8000210F09D
:107850008070E4D0D3F80802094B10F0010018BF83
:107860001846DCE770470B69C3F303130133B0FB21
:10787000F3F0704700400640B4050020006CDC02C5
:1078800000127A00274B1B6AC3F30363062B23D82D
:10789000DFE803F02427303E22220400214BD3F8F6
:1078A000000610F0807018D0D3F8000110F080703E
:1078B00013D01D4A106880B1D3F80826D3F80836D3
:1078C000C3F30443C2F3022210330132B0FBF2F0DF
:1078D00000FB03F358087047002070470220FFF7B1
:1078E0005FBF104BD3F8000110F08070F5D00E4B45
:1078F000186870470B4BD3F8000210F08070ECD082
:10790000D3F80802094B10F0010018BF1846704761
:10791000044BD3F8000310F08070DED0D3F80833A6
:107920000348704700400640B405002000127A006A
:10793000006CDC022DE9F0474C788A780D7891F8DC
:1079400003E0631C02FB03316B1C02FB033C0EF1E2
:10795000FF33561C052B53D8DFE803F02C5D235270
:1079600052037C4BD3F80076FF0175D4022800F057
:10797000CB80032800F08980012849D11304240119
:1079800003F47023E4B2234305F00F054FEA0E6EB3
:10799000704A2B430EF0706E43EA0E0353610020D1
:1079A00037E06C4BD3F80073FF01DFD5D3F8083311
:1079B000694B07E0674BD3F80031DB0135D5674BE6
:1079C0001B681B09022800F0878003286ED001285D
:1079D0001ED1DFF898A10EEB4E074FEA4E085AF879
:1079E00027904FEA191906FB09F69E420AEB870712
:1079F0000FD37E68360906FB01F1994209D39DE059
:107A0000022800F0818003283FD0012800F09180F7
:107A10000020BDE8F0874F4BD3F80072FF0104D57A
:107A2000D3F80832DB0700F1828002286CD00328EB
:107A3000EBD11304240103F47023E4B2234305F0D3
:107A40000F054FEA0E6E434A2B430EF0706E43EA69
:107A50000E03D3610020DCE7D3F80071FF0185D568
:107A60003E4F3F68002F81D0D3F80886D3F8083600
:107A7000C3F30443C8F30228103308F10108B7FB2D
:107A8000F8F707FB03F35B099CE7354F00234FEA48
:107A90004E08F04407EB8808D8F8081009090CFBD9
:107AA00001F19942C5D20120BDE8F0872C4F0EEBC1
:107AB0004E004FEA4E0857F820904FEA191906FB7E
:107AC00009F6B34207EB8000EDD84068000900FBDF
:107AD00001F18B42E7D8DCE722480EEB4E0800EBC1
:107AE000880750F82800000906FB00F09842DAD316
:107AF0007868000901FB00F09842D4D3B9680909FD
:107B00000CFB01F19942CED31304240103F470233A
:107B1000E4B2234305F00F054FEA0E6E0D4A2B43E6
:107B20000EF0706E43EA0E039361002071E70E4B76
:107B300048E7DFF838A000234FEA4E08F0440AEB8C
:107B40008808D8F8081009090CFB01F19942AAD35A
:107B500014E700BF00400640C0C62D00B405002059
:107B6000704201001843010020A10700C442010037
:107B700008B5574B5B68C3F303130E2B09D8DFE836
:107B800003F0140817082B084154587E9008820807
:107B9000110000204E4B5B68C3F302230133B0FB9E
:107BA000F3F008BDFFF7B8FDF4E7FFF76BFEF1E770
:107BB000484B484AD3F80031D2F8042113F08073BF
:107BC0001CBF454B1B6812F4E06FC2F30220E1D0EA
:107BD000013823FA00F0DDE73E4AD2F8003213F014
:107BE000807306D0D2F808323C4A13F0010318BF64
:107BF0001346384AD2F8042212F4E06FC2F302208E
:107C0000C8D0E5E7334AD2F8003313F0807318BFC9
:107C1000D2F808332F4A18BF314BD2F8042312F49C
:107C2000E06FC2F30220B5D0D2E70020FFF7B8FD25
:107C3000B0E7284AD2F8003613F0807316D0D2F895
:107C4000003113F0807311D0234B1B6873B1D2F84D
:107C50000816D2F80826C2F30442C1F302211032FA
:107C60000131B3FBF1F302FB03F35B08194AD2F8CD
:107C7000042612F4E06FC2F302208BD0A8E70120A3
:107C8000FFF78EFD86E7124A1369C3F38103022BC7
:107C900017D0032B08D0002B14BF00204FF4FA306C
:107CA00078E74FF4FA3075E7106910F002003FF4FE
:107CB00071AF136913F0010F0CBF00204FF47A70FD
:107CC00068E7106910F0020018BF4FF4FA4061E74E
:107CD0000080044000400640B405002000127A00F5
:107CE000006CDC02874B33F810309B0003F18043BB
:107CF00003F5CA2310B51C681A68C4F3C00C02F05F
:107D00000702624516D31C68C4F3807E640013D555
:107D10001B68C3F30263013B052B7FD8DFE803F048
:107D20006D583D7E7E0E784BDB68C3F30163032BF9
:107D300040F0D180002010BD704610BD012973496C
:107D4000D1F8003640F0A18013F0807316D0D1F83E
:107D5000003113F0807311D06D4B1B6873B1D1F8F3
:107D60000806D1F80816C1F30441C0F3022010310F
:107D70000130B3FBF0F301FB03F35B086349D1F877
:107D80000406C0F302200028D5D00138C3400132D8
:107D9000B3FBF2F00CFB000010BD01295B49D1F8E8
:107DA000003365D113F0807318BFD1F808335749F9
:107DB00018BF584BD1F80403C0F302200028BAD0F2
:107DC0000138C340501CB3FBF0F00CFB000010BDA9
:107DD00001294E49D1F800323AD113F0807306D010
:107DE000D1F808324C4913F0010318BF0B4647493C
:107DF000D1F80402C0F30220E0E7444B0129D3F894
:107E0000003119D1414913F0807318BF404BD1F8AC
:107E1000040118BF1B68C0F30220CFE73B380328DA
:107E200088D801A353F820F0277D0000F77E0000DA
:107E3000E97E0000CB7E0000344913F0807318BF48
:107E4000334BD1F8040118BF1B6800F00700B5E7F9
:107E500013F0807306D0D1F808322F4913F00103D4
:107E600018BF0B462949D1F8040200F00700A5E726
:107E700013F0807318BFD1F80833244918BF254B7D
:107E8000D1F8040300F0070098E713F0807316D0D0
:107E9000D1F8003113F0807311D01D4B1B6873B102
:107EA000D1F80806D1F80816C1F30441C0F3022046
:107EB00010310130B3FBF0F301FB03F35B0813490E
:107EC000D1F8040600F007005DE70F4BDB689B0F5D
:107ED000032B3FF42FAF114A52F8230000283FF440
:107EE0002AAF0CFB000010BD074BDB68C3F3017326
:107EF000032BF0D11EE7044BDB68C3F38163032B34
:107F0000E9D117E7D8410100008004400040064055
:107F1000B4050020006CDC0200127A0098050020F5
:107F2000B84B5B69DBB2042B2DE9F0437AD0802B90
:107F300000F0B480012B00F0978045780678C27875
:107F400090F802C005F1010E711C531E0CFB0EEEE1
:107F50000CFB01110CF10107052B28D8DFE813F009
:107F6000440146014801270027004A010223A64A8E
:107F7000D2F80043E40100F1B3800322022B00F0A9
:107F8000D081032B00F09281012B10D112064FEA11
:107F90000C4102F0706301F470212A010B43D2B24C
:107FA0001343994906F00F0633434B61C278964B51
:107FB0001969C1F303618A4200F01E811969C1F396
:107FC0000361914200F018811969C1F303618A428B
:107FD00000F012811969C1F303618A4200F00C813B
:107FE0001969C1F303618A4200F006811969C1F37E
:107FF00003618A4200F000811969C1F303618A427A
:1080000000F0FA801969C1F303618A4200F0F4803C
:108010001969C1F303618A4200F0EE801B690320F5
:10802000BDE8F08345780678C37890F802C005F182
:10803000010E711C5A1E0CFB0EEE0CFB01110CF113
:108040000107052A00F28B8001A454F822F000BF3A
:1080500095820000538100006D7F00005F81000069
:108060005F8100008781000045780678C37890F82A
:1080700002C005F1010E711C5A1E0CFB0EEE0CFB2A
:1080800001110CF10107052A00F22081DFE812F04E
:108090004600AA00A8001E011E01A6004578067829
:1080A000C37890F802C005F1010E711C5A1E0CFB3A
:1080B0000EEE0CFB01110CF10107052A00F22A81DA
:1080C00001A454F822F000BF1B810000C981000008
:1080D0006F7F00001583000015830000D981000028
:1080E0004A4CD2F808230322022B00F0AF80032B66
:1080F00000F09280012B7FF45AAFDFF8189102EB69
:10810000420859F828804FEA181807FB08F7A742D9
:1081100080F0E0800120BDE8F08303233A4AD2F8E2
:108120000021D40100F1BD800122032B00F0DF808B
:10813000012B7FF43CAFDFF8DC9000245700BB1824
:1081400009EB83039B681B0901FB03F3A342E1D303
:108150001CE72D4AD2F80022D20100F19480984603
:108160004FEA08634FEA0C4101F4702103F0706399
:108170002A010B43D2B21343234906F00F063343BF
:108180008B61C27813E702231F4AD2F80046E4014C
:1081900035D5D2F80041E40131D51D4CD4F800802A
:1081A000B8F1000F2BD0D2F80896D2F80846C4F3E5
:1081B0000444C9F3022210340132B8FBF2F808FB80
:1081C00004F4640906228FE703230F4AD2F8002241
:1081D000D40158D40222A8E70323D5E70123D3E72B
:1081E0000123C4E60123F0E7042397E70423ECE727
:1081F0000423BCE60423C7E70020BDE8F083062281
:10820000BCE600BF00E0074000400640C0C62D00AD
:10821000B4050020C4420100DFF81C8102EB4209D2
:10822000134658F82920120907FB02F2A242FFF474
:1082300071AF03EB430208EB82025F005268120940
:108240000EFB02F2A242FFF465AF34E0364B02EBC4
:108250004209904653F82920120907FB02F2A24274
:1082600003EB8903FFF456AF5A6812090EFB02F2C2
:10827000A242FFF44FAF9B681B0901FB03F3A3422B
:10828000FFF448AF6CE7294AD2F80822D20745D458
:10829000022273E6254AD2F80021D2017FF55FAFB2
:1082A0000223234A1468012224091DE7DFF888808D
:1082B000134600245700FA1808EB8202926812094C
:1082C00001FB02F2A242FFF425AF11E0DFF86C904F
:1082D0001A46002402EB420309EB830357005B6854
:1082E0001B090EFB03F3A342FFF414AF27E7134669
:1082F0001B064FEA0C4101F4702103F070632A0160
:108300000B43D2B21343094906F00F063343CB6146
:10831000C2784CE6DFF8208000248AE7054C022270
:10832000E2E690461CE700BF18430100004006400B
:10833000B405002020A1070070420100C4420100E2
:108340002DE9F0410446A4B0002800F091810E4AC6
:108350001369C3F30363032B1AD0D2F8001311F08F
:10836000807140F0DA810120FEF7FCFF054630B94C
:10837000064B019301A8FFF7D3FD054640B12846FF
:1083800024B0BDE8F08100BF0040064003010003B7
:10839000E67821463046FFF7CBF80546002800F086
:1083A000BF81AB4B5B69DBB2042B00F00882802BF2
:1083B00040F0AD8104F13E07002DE0D1FB78032BA6
:1083C00040F0CB8194F82830002B40F0FB81637F94
:1083D000002B00F0D1810DF104089E4B0193404623
:1083E000FFF79EFD054616B1012D00F0C881002D56
:1083F000C5D1A07BE11DFEF7B5FF05460028BED123
:10840000BA783B888DF80620032140468DF8071086
:10841000ADF80430FFF784FD0546002DAFD18E4B3B
:1084200094F830201D600AB1E26A1A6094F8353081
:1084300053B18A4994F834300A6A1B0622F07062FC
:1084400003F0706313430B6294F84330002B40F049
:108450009D8194F84430BBB1814894F845604168EF
:1084600094F8462094F8473021F400614160416857
:10847000120121F47F61D2B21B0241EAC62103F44A
:10848000E0630A431343436094F84830BBB1744936
:1084900094F84C300A6922F03F02134394F84B20C1
:1084A00043EA420394F84A20920002F00C021A4375
:1084B00094F849301B0103F0300313430B6194F827
:1084C00070303BB3664B94F87120196C21F00101B8
:1084D0000A431A641A6C94F8721022F0020242EAFB
:1084E00041021A641A6C94F8731022F0040242EAF2
:1084F00081021A641A6C94F8741022F0080242EA9D
:10850000C1021A641A6C94F8751022F0100242EA43
:1085100001121A6494F850304BB35249504B626DBB
:108520000A60A26DD8684A60226E120620F0407080
:1085300002F040720243E06D8860DA60626ED968D2
:10854000920621F0406102F040620A43DA60A26EB6
:10855000D968120721F0405102F040520A43DA6014
:10856000DA68E16E22F0404242EA8172DA6094F801
:108570007630E3B13A4A0020936E906694F87830F2
:1085800051681B0321F4805103F480530B43536063
:1085900094F87730906653B194F8793094F87A1063
:1085A0005B0003F00E030B4343F080539366D4F853
:1085B000801051B3E36F43B303EB83032A4E01EB07
:1085C000030C0B7891F801E036F813309B0003F1AF
:1085D000804303F5CA2305311A6822F080421A60ED
:1085E00011F8012C11F8030C02F00702000600F04C
:1085F000E06042EA8E72024311F8020CC00000F003
:10860000080002438C451A60DBD194F88430002BBB
:108610003FF4B5AE154994F885208B7882F00102BD
:1086200003F07F0343EAC213DBB28B7094F9863008
:108630000E49002B0A79BCBF20335BB202F0E00286
:1086400003F01F03134328460B7124B0BDE8F081EB
:1086500000E00740010100019405002000400640B1
:108660000080044098050020D841010000D0074058
:108670004FF480704FF00131CDE90210ADF82400C5
:10868000ADF82F004FF440200A9057480F905748FC
:10869000109000F18070FF38012211904FF4C060FB
:1086A0008DF81620ADF814208DF83820ADF848006C
:1086B0008DF854204E488DF858204E4D4E4A229049
:1086C0004E48149040F20113CDE906524FF08070ED
:1086D0001D22CDE91744CDE91944CDE91B440D9481
:1086E0008DF84D40ADF84E401D94ADF81030ADF80A
:1086F0002030ADF82C30ADF84B301E918DF88E4007
:10870000CDE920021F91ADF88C3002AC1FE6012BA1
:108710007FF435AE04F136074EE6D2F8083327E68B
:10872000607F04F11001FEF779FE05460746002838
:108730007FF437AE94F8280004F12001FEF756FFCD
:108740002F4B5B69DBB2042B054638D0802B3FF4FE
:1087500031AE012B7FF430AEDCE73B68019301A81A
:10876000FFF7DEFB054600287FF409AEA07BE11D84
:10877000FEF7F8FD054650E6A6B30DF10408214BBF
:1087800001934046FFF7CCFB054630E604F1360185
:108790000120FFF7CFF808B10546F0E504F13A01F2
:1087A0000220FFF7C7F80028F6D104F13E010320AC
:1087B000FFF7C0F800283FF44CAE0546DFE504F1B2
:1087C0003A07F9E50DF104080F4B01934046FFF716
:1087D000A7FB637F0546002B3FF405AE01287FF41D
:1087E00006AEFAE50125CAE5030101010003030015
:1087F000B8D8FF1F00127A0000010002010000013A
:1088000000E007400100000201010206112870B5D6
:1088100004460D4640D9232835D94A2853D8242860
:1088200053D0A0F13303DBB2172B04D8A64A22FAA7
:1088300003F3DB0749D4A54AA54B32F8142053F8BB
:1088400022305E004AD5A34B1E5D16F0200040F09A
:10885000A28116F040023CD1300639D416F018033C
:1088600000F0A181310700F1A081F20636D5012187
:108870002046FFF737FA0246B2FA82F35B09180284
:1088800005B12A6070BDA0F11503032B00F29A8197
:10889000DFE803F036404728441E102C00F28E819A
:1088A000DFE814F0AB0046004C01550164016F0194
:1088B000AF00CE00D100D400E900000128013C0146
:1088C0004D0061008500042070BD00220420D7E720
:1088D0000220FEF765FF02460028BFD100224FF4B8
:1088E0008070CDE77C4BDB689B0F032B0ED07B4A5F
:1088F00052F8233053B10020002DC3D02B6070BD3F
:10890000754BDB68C3F30163032BF0D100234FF4F5
:108910008070F1E7704BDB68C3F38163032BE6D112
:10892000F4E76D4BDB68C3F30173032BDFD1EDE795
:108930000220FEF735FF05B12860002070BD684BAE
:10894000674AD3F80031D2F8042113F080731CBFBA
:10895000644B1B6812F4E06FC2F30220EBD00138C5
:1089600023FA00F0E7E75E4AD2F8003613F080738E
:1089700016D0D2F8003113F0807311D0594B1B6818
:1089800073B1D2F80816D2F80826C2F30442C1F334
:10899000022110320131B3FBF1F302FB03F35B0858
:1089A0004F4AD2F8040610F00700C4D0D7E74C4A6B
:1089B000D2F8003613F0807316D0D2F8003113F0DD
:1089C000807311D0474B1B6873B1D2F80816D2F8E8
:1089D0000826C2F30442C1F3022110320131B3FB75
:1089E000F1F302FB03F35B083D4AD2F8042612F4CC
:1089F000E06FC2F302209ED0B1E70120FEF7D0FE67
:108A000099E7374BD3F8000610F0807093D0D3F875
:108A1000000110F080708ED0324A106800288AD091
:108A2000D3F80826D3F80836C3F30443C2F302226E
:108A300010330132B0FBF2F202FB03F358087AE77D
:108A4000294B186877E7FEF71DFF74E7244AD2F830
:108A5000003213F0807306D0D2F80832234A13F0A4
:108A6000010318BF13461E4AD2F8040210F0070093
:108A70003FF461AF73E71A4AD2F8003213F0807303
:108A800006D0D2F80832194A13F0010318BF134672
:108A9000134AD2F8042212F4E06FC2F302203FF42A
:108AA0004AAF5CE70E4AD2F8003313F0807318BF68
:108AB000D2F808330A4A18BF0D4BD2F8040310F05D
:108AC00007003FF438AF4AE7A1108000D841010009
:108AD000005006406C4301000080044098050020CF
:108AE00000400640B40500209405002000127A00E2
:108AF000006CDC027B4AD2F8003313F0807318BF9D
:108B0000D2F80833774A18BF774BD2F8042312F40F
:108B1000E06FC2F302203FF40EAF20E7714B714AC1
:108B2000D3F80031D2F8040113F080731CBF6F4BEF
:108B30001B6810F007003FF4FEAE10E76C4B58685E
:108B400010F400603FF4F7AEFFF712F8F3E6654B60
:108B5000D3F8000210F080703FF4EDAED3F80802B5
:108B6000644B10F0010018BF1846E4E65D4BD3F8E3
:108B7000000310F080703FF4DEAED3F808335A489B
:108B8000D9E6584BD3F8000110F080703FF4D3AE13
:108B9000564B1868CFE60120FEF702FE0246002879
:108BA0003FF49CAE5AE618466AE600212046FFF7DD
:108BB00099F8F30602463FF55AAE5DE60020FEF74F
:108BC000EFFDB8E6A0F11903052B04D8DFE803F0A8
:108BD0007F7B5F48180CA0F11F04042C3DD8DFE810
:108BE00004F037322D281E00434B9B78DB09012B04
:108BF0000BBF00234FF4FA334FF4807000207BE664
:108C00003D4B9B78DB097FF481AE394B1B6913F038
:108C100002033FF47CAE4FF4FA4300206CE6344B81
:108C20001B6CDA077FF572AE0120FEF7B9FD034633
:108C300060E62F4B1B6C9907F6D467E62C4B1B6C38
:108C40005807F1D462E62A4B1B6C1C07ECD45DE696
:108C5000274B1B6CDE06E7D458E6002304204BE6C6
:108C6000254B9B78DB097FF451AE214A136913F041
:108C700002033FF44CAE136903F00103002B0BBF5A
:108C800000234FF47A734FF48070002034E61A4BBF
:108C90009B78DB097FF43AAE154A1369C3F381036D
:108CA000022B0AD0032BE1D0002B15BF00234FF479
:108CB000FA334FF4807000201EE6136913F00203AC
:108CC0003FF425AEA7E7FEF727FD034612E6084B63
:108CD0005B6813F400633FF41AAEFEF749FF0346E6
:108CE00008E600BF00400640006CDC02B40500202E
:108CF0000080044000127A0000D0074010B4074CF6
:108D000020600020A260024663F3070263F30F2293
:108D10002171A2815DF8044B704700BFA4050020BB
:108D20002DE9F043594E83B080460F468DF804007C
:108D30008DF80510FDF724FC96F80C9086F80D9040
:108D400001238DF80630B9F1000F5ED0002F67D0F7
:108D50000024B36853F8243001A84BB11A79022AD1
:108D600006D01A689968904796F80C9000B1747311
:108D70000134E4B2A145ECD8336853F82800FFF77A
:108D8000DFFA86F80580804630BB02238DF8063076
:108D9000B9F1000F18D0002F61D005460446B36822
:108DA00053F8243001A833B11A79012A03D01A6884
:108DB000996890478046337B0135B8F1000F20D089
:108DC0007473ECB2A342EAD84FF00008FDF7CCFB75
:108DD000404603B0BDE8F08325B200238DF806308D
:108DE000AD00B3685B5901A8043D13B11A689968D6
:108DF00090472B1DF5D1FDF7B7FB404603B0BDE80A
:108E0000F083ECB2A342CAD8DEE7336853F82800F7
:108E1000FFF796FA86F805808046E0B14D46DCE71C
:108E20003C4605E096F80C900134E4B24C45A3D2E0
:108E3000B36825B253F82530002BF5D01A79022AF1
:108E4000F2D01A68996801A890470028EAD0747394
:108E500040F20318C1E702238DF80630B4E73C4620
:108E6000B36853F8243001375BB11A79012A08D06E
:108E70001A68996801A8904718B174734FF4827802
:108E8000A4E7337BFCB2A342EAD89DE7A405002007
:108E9000FFF7BCBCF0B5064685B006F1100344F2FE
:108EA00040106B440D46524AADF8000013F8100C08
:108EB00052F82640002301A90193FFF7E9FF2B7820
:108EC000019A4C49DA400192226C5B0122F0600267
:108ED00003F0600313432364636C6A7823F0FF0399
:108EE000012A2CBF134343F001036364AB78226C67
:108EF0009B0022F00C0203F00C0313432364226C4A
:108F0000EB7822F0030203F00303134323642B796D
:108F1000D4F890209B0122F0400203F04003134359
:108F200004A8C4F8903030224FF4405300EB860080
:108F3000039302928A6950F8087C6B7922EA07024F
:108F4000002E39D0012E44D08A614FF48073012263
:108F5000CDE902238B6950F8082C23EA0203254A45
:108F6000E9799361D4F8903023F0040343EA810354
:108F7000C4F89030D4F890102B7A21F0030103F05C
:108F800003030B43C4F89030D4F89430697A23F08B
:108F9000080343EAC103C4F894302EB9AB7A2BB16D
:108FA000536843F40023536005B0F0BD536823F4C5
:108FB0000023536005B0F0BD1B0103F030031343E1
:108FC0008B618A69AB7922F0010203F0010313433C
:108FD000C5E71B0303F4405313438B61AB798A69E4
:108FE0001B0222F4807203F480731343B7E700BFBF
:108FF000B8430100008004402DE9F0434C4B53F886
:10900000204083B000F10803D4F894500DEB030026
:10901000D4F89430D4F89070666C03F00308D4F858
:10902000943043F00303C4F89430D4F8943043F000
:109030000403C4F89430D4F8903023F04003C4F80B
:109040009030636C23F0FF0343F00C036364002350
:10905000C4F8B4300193C4F8B830C4F8BC30C4F8D4
:10906000C030C4F8C430C4F8C830C4F8CC3044F2BE
:109070004013ADF80030236C10F8080C01A9C3F3BD
:109080004119FFF705FF019B2A4A23FA09F1914292
:109090004FEA9505F6B208D9274A93423CD82023D7
:1090A000226C22F0600213432364D4F8943043F01E
:1090B0008003C4F89430D4F894301B06FBD4236C9E
:1090C00023F0600343EA49132364D4F89430AD00DD
:1090D00023F0040305F004051D43C4F89450D4F8AC
:1090E000943023F0030348EA0303C4F89430D4F81F
:1090F000903007F0400723F040031F43C4F89070FE
:10910000636C23F0FF03012E2CBF334343F00103B4
:10911000636403B0BDE8F083084A934201D840235A
:10912000BEE7074A934294BF60230023B8E700BF1D
:10913000B843010040787D0181F0FA0203E1F505B2
:1091400007C2EB0B00B583B00093002300F032F8A8
:1091500003B05DF804FB00BF10B582B00446009375
:10916000002300F027F82268A36852425B42226085
:10917000A36002B010BD00BF10B4019CC46104FB29
:1091800002F20E2492FBF1F14FF08042816192FBDA
:10919000F1F2A14044BF01F57F41FF31047102604B
:1091A0000E24091400220473C0E904235DF8044B63
:1091B0008160704710B4A2EB010C0E2404714FF0D3
:1091C000804494FBFCF45FEA8C3C44BF0CF57F4C7C
:1091D0000CF1FF0C01614FEA2C41C0E905328160BE
:1091E000019B04600E215DF8044B0173C36170475D
:1091F00010B4064C01FB02F20199A4FB0242920951
:109200005DF8044BC91A00F04FB800BFD34D62108F
:1092100000B583B04FF0010CC1EB011100930CFAC3
:1092200002F200238900FFF7A7FF03B05DF804FBFB
:1092300010B4C1EB011CBDF80440019419464FEA7B
:109240008C0CBCFBF1F14FF0010C5DF8044B0023DA
:109250000CFA02F2FFF790BF10B5BDF808E0114C10
:109260001144C3F10F0C01FB0EF303FA0CF3B3FB33
:10927000F2F3A4FB03439B0903604FF47A73D20318
:10928000B2FBFEF203FB02F20023C0E90433B2FB9F
:10929000F1F1BDF80C3080F80CC00F24047181602E
:1092A000C36110BDD34D6210F0B5059CC4610F467B
:1092B000A4EB030E0E2107FA01F6017196FBF2F6FC
:1092C0000EFB02F56FF0004C95FBF7F59CFBF6F1F9
:1092D0008D428561066058DD74109CFBF4F18D426F
:1092E00040F3AA80B4109CFBF4F18D4240F3B080AF
:1092F000F4109CFBF4F18D4240F3AC8034119CFBE4
:10930000F4F18D4240F3AC8074119CFBF4F18D427A
:1093100040F3AA80B4119CFBF4F18D4240F3A88085
:10932000F4119CFBF4F18D4240F3A48034129CFBB9
:10933000F4F18D4240F3A48074129CFBF4FC65456B
:1093400040F3A280B4126FF0004191FBF4FC65453C
:1093500040F39E80F41291FBF4FC654540F39C8041
:10936000341391FBF4FC65456CDD741391FBF4FC44
:10937000654540F39580B41391FBF4F1A942A8BF71
:1093800000215ADA002104600171920392FBF7F781
:109390000E2202736FF0004292FBF7F4A64587603D
:1093A00046DD7C1092FBF4F5AE4549DDBC1092FB26
:1093B000F4F5AE454ADDFC1092FBF4F5AE454BDD0D
:1093C0003C1192FBF4F5AE4548DD7C1192FBF4F5BF
:1093D000AE4547DDBC1192FBF4F5AE4546DDFC1110
:1093E00092FBF4F5AE4547DD3C1292FBF4F5AE4539
:1093F00044DD7C1292FBF4F2964543DDBC126FF023
:10940000004292FBF4F5AE4540DDFC1292FBF4F510
:10941000AE453FDD3C1392FBF4F5AE4514DD7C1305
:1094200092FBF4F5AE4539DDBC1300228460027373
:109430000022C0E90423F0BD0D2104600171A4E7FE
:109440000D22F3E70221F8E70222EFE70C22EDE715
:109450000C21F2E70B21F0E70B22E7E70A22E5E710
:109460000A21EAE70922E1E70921E6E70822DDE728
:109470000821E2E70721E0E70722D7E70622D5E740
:109480000621DAE70522D1E70521D6E70422CDE758
:109490000421D2E70322C9E70321CEE70122C5E771
:1094A0000121CAE78A4203DC8242B8BF0246114664
:1094B0000846704770B5046801FB04F682B16FF08E
:1094C0000045B5FBF2F5AE4217DB012301E0B445E0
:1094D00015DC9B009BB29A4205FB03FC9E46F6D22C
:1094E000056990F804C04369491B04FB01F040FA88
:1094F0000CF0184402FB00F070BD4FF0010E05693E
:1095000090F804C0436901FB02F090FBFEF0401BA1
:1095100004FB00F040FA0CF018440EFB00F00028A9
:10952000E2D070BD036830B49BB11C6859689A687A
:10953000D3F80CC0C0F810C044608160C2601C69E0
:1095400059699A69D3F81CC0C0F820C04461816190
:10955000C261D0E9061382680A4D4469856302FB43
:1095600001F103FB02F2C0E909126FF0004300228F
:1095700093FBF4F34FF6FF74C463C0E90B2330BCD4
:10958000426370470100FFFF0346C0688A1A10B5A6
:109590001969DC6A02FB00F090FBF1FE196B8C424A
:1095A00002DC49428C422DDA5969586A94FBF0F08A
:1095B00001FB00FCD86B60450EDA002A2DDB01466A
:1095C0001C79012C12D00EEB0102904203DB986B48
:1095D0009042B8BF104610BD996B8C4519DA002A2D
:1095E000EEDD1444DC621C79012CECD15C6B5A6317
:1095F000121B9C6A714404FB02F21C6A92FBF4F297
:109600000A44E2E75869596A04FB00F090FBF1FC58
:10961000D0E71444DC626146D2E71444DC620146C0
:10962000CEE700BFC36B8B4202DB836B994217DA34
:10963000416A6FF0004292FBF1F2934206DD42690B
:1096400093FBF2F301FB03F3C36270475242934270
:10965000F5DB426901FB03F393FBF2F3C36270474E
:10966000436A6FF0004292FBF3F2914208DC5242EF
:10967000914205DB426903FB01F191FBF2F3E3E761
:10968000426991FBF2F101FB03F3C362704700BF33
:10969000C36B994202DC836B994217DA416A6FF01F
:1096A000004292FBF1F2934206DD426993FBF2F332
:1096B00001FB03F3C362704752429342F5DB4269F8
:1096C00001FB03F393FBF2F3C3627047436A6FF04D
:1096D000004292FBF3F2914208DC5242914205DBD8
:1096E000426903FB01F191FBF2F3E3E7426991FB6D
:1096F000F2F101FB03F3C362704700BF8A421EDD33
:1097000030B4D0E90B34A342C0E90E1218DD44692D
:10971000456A93FBF5F304FB03F39A421BDA6FF0FF
:10972000004393FBF5F39A4226DC5B429A4223DB2B
:1097300005FB02F292FBF4F2C26230BC7047704744
:109740006442A342E3DB4469456A04FB03F393FBF1
:10975000F5F39A42E3DB9942EFDD6FF0004393FBB0
:10976000F5F3994202DC5B4299420CDA91FBF4F189
:1097700005FB01F1C162E0E792FBF4F405FB04F4A0
:10978000C46230BC704705FB01F191FBF4F1C1628A
:10979000D3E700BF0023054A8383026043608360F0
:1097A000C360036143618361704700BFFF7FE74986
:1097B0004FF080224FF40043C0F81E2043847047CE
:1097C00038B50446043007F045FD04F1180007F0F1
:1097D00041FD04F12C0007F03DFD2368012284F8CF
:1097E000482023B31A685B68636422646268A369D3
:1097F0001569E2681B69216AE06AAA430CBF01226D
:10980000002231EA03034FF00003006962F3000312
:10981000626B0CBF01210021824361F341030CBF45
:109820000122002262F3820384F8493038BD024AE3
:10983000024BC4E91023D9E700010203040506071F
:10984000426830B411698469C26825698A43026A32
:10985000C16A0CBF012400244FF00003AA4364F343
:109860000003426B0C690CBF4FF0010C4FF0000C71
:10987000A2436CF341030CBF0122002262F3820376
:1098800050FA83F3022183F8401030BC704700BFC8
:10989000426830B411698469C26825698A43026AE2
:1098A000C16A0CBF012400244FF00003AA4364F3F3
:1098B0000003426B0C690CBF4FF0010C4FF0000C21
:1098C000A2436CF341030CBF0122002262F3820326
:1098D00050FA83F3032183F8401030BC704700BF77
:1098E000426830B411698469C26825698A43026A92
:1098F000C16A0CBF012400244FF00003AA4364F3A3
:109900000003426B0C690CBF4FF0010C4FF0000CD0
:10991000A2436CF341030CBF0122002262F38203D5
:1099200050FA83F3042183F8401030BC704700BF25
:10993000426830B411698469C26825698A43026A41
:10994000C16A0CBF012400244FF00003AA4364F352
:109950000003426B0C690CBF4FF0010C4FF0000C80
:10996000A2436CF341030CBF0122002262F3820385
:1099700050FA83F3052183F8401030BC704700BFD4
:10998000426830B411698469C26825698A43026AF1
:10999000C16A0CBF012400244FF00003AA4364F302
:1099A0000003426B0C690CBF4FF0010C4FF0000C30
:1099B000A2436CF341030CBF0122002262F3820335
:1099C00050FA83F3062183F8401030BC704700BF83
:1099D000426830B411698469C26825698A43026AA1
:1099E000C16A0CBF012400244FF00003AA4364F3B2
:1099F0000003426B0C694FF001010CBF8C464FF025
:109A0000000CA2436CF341030CBF0A46002262F330
:109A1000820350FA83F383F8401030BC704700BFD4
:109A200010B5044607F040FC204607F02BFC04F17B
:109A30000C0007F027FC04F1180007F023FC0023BA
:109A400084F8603010BD00BF90F86030022B02D067
:109A500080F8601070472DE9F041056844682A6E6F
:109A6000C66A876BD0F84C80012303FA04FE42EAF1
:109A70000E02446A2A66A2683243A260D0E9034219
:109A800003FA02FC226E066C42EA0C022266BA68F5
:109A90003243BA60D0E90626B340166E476D1E43C6
:109AA0001666D8F808603E43C8F808602E6F26EAAC
:109AB0000E062E67256F25EA0C052567146F24EA2C
:109AC0000303136780F86010BDE8F081036873B189
:109AD00019685A68D3F808C041608260B0F908304C
